:100000000C942A000C9447000C9447000C94470071
:100010000C9447000C9447000C9447000C94470044
:100020000C9447000C9447000C9447000C94470034
:100030000C9447000C9447000C9447000C94470024
:100040000C9447000C9447000C9447000C94470014
:100050000C94470011241FBECFE5D8E0DEBFCDBF12
:1000600011E0A0E6B0E0E2E9F1E402C005900D92F3
:10007000A63BB107D9F711E0A6EBB1E001C01D9294
:10008000A63FB107E1F70E941B1F0C94C7200C94F8
:100090000000EF92FF920F931F937B018C0120E0F1
:1000A00030E040E05FE40E94550488238CF0C801F2
:1000B000B70120E030E040E05FE40E94C1010E940F
:1000C00013059B01AC01205030404040504806C011
:1000D000C801B7010E9413059B01AC01B901CA0117
:1000E0001F910F91FF90EF900895A0E0B0E0EBE733
:1000F000F0E00C949020DC012B01FA019C919230ED
:1001000008F439C1EB018881823008F433C194309E
:1001100069F4843009F02FC111969C91119789815F
:10012000981709F428C1ADE6B0E025C1843009F480
:1001300021C18230A9F4923009F01DC19A01AD01AC
:1001400088E0EA010990AE01E90109929E0181501F
:10015000C1F7E201898111969C918923818308C1AD
:10016000923009F407C112962D903C901397EB0141
:100170008A819B811496AD90BD90CD90DC901797AD
:10018000EC80FD800E811F819101281B390BB90184
:1001900037FF04C066277727621B730B6032710537
:1001A0000CF061C0121613066CF537014801062EDB
:1001B00004C096948794779467940A94D2F721E0C8
:1001C00030E040E050E004C0220F331F441F551FB1
:1001D0006A95D2F721503040404050402E213F21B7
:1001E00040235123211531054105510521F021E01E
:1001F00030E040E050E079018A01E628F72808293C
:1002000019293CC0232BD1F1260E371E350146019A
:10021000062E04C096948794779467940A94D2F734
:1002200021E030E040E050E004C0220F331F441FC3
:10023000551F6A95D2F721503040404050402A2146
:100240003B214C215D21211531054105510521F04E
:1002500021E030E040E050E059016A01A628B728CB
:10026000C828D9280BC0821593052CF01C01AA249C
:10027000BB24650103C0EE24FF24870111969C91E5
:10028000D20111968C91981709F445C0992339F041
:10029000A80197012A193B094C095D0906C0A6016E
:1002A00095012E193F09400B510B57FD08C01182D3
:1002B0003382228224833583468357831DC081E0A5
:1002C00081833382228288279927DC01821B930B4A
:1002D000A40BB50B84839583A683B7830DC0220F2F
:1002E000331F441F551F24833583468357838281E0
:1002F000938101979383828324813581468157813D
:10030000DA01C9010197A109B1098F5F9F4FAF4F72
:10031000BF4328F30BC0918333822282EA0CFB1C7B
:100320000C1D1D1DE482F5820683178383E0808304
:10033000248135814681578157FF1AC0C901AA27F8
:1003400097FDA095BA2F81709070A070B0705695EF
:10035000479537952795822B932BA42BB52B848318
:100360009583A683B7838281938101969383828349
:10037000DF0101C0D201CD01CDB7DEB7E2E10C94BF
:10038000AC20A0E2B0E0E7ECF1E00C949C206983A3
:100390007A838B839C832D833E834F835887E9E048
:1003A000EE2EF12CEC0EFD1ECE010196B7010E943F
:1003B00004078E010F5E1F4FCE010596B8010E9403
:1003C00004078A8991E089278A8BC701B801AE01A9
:1003D000475E5F4F0E9475000E942F06A096E6E0E0
:1003E0000C94B820A0E2B0E0E8EFF1E00C949C207F
:1003F00069837A838B839C832D833E834F835887C5
:10040000F9E0EF2EF12CEC0EFD1ECE010196B701A6
:100410000E9404078E010F5E1F4FCE010596B801A2
:100420000E940407C701B801AE01475E5F4F0E94FA
:1004300075000E942F06A096E6E00C94B820A0E27A
:10044000B0E0E5E2F2E00C94902069837A838B833C
:100450009C832D833E834F835887CE010196BE0136
:10046000675F7F4F0E940407CE010596BE016F5E55
:100470007F4F0E9404079985923088F089898230E5
:10048000C8F0943019F4823051F404C0843029F457
:10049000923081F48DE690E0C6C0923049F420E0BD
:1004A0009A858A89981321E02A87CE010996BBC0D4
:1004B000823049F420E09A858A89981321E02A8BBA
:1004C000CE014196B0C02D843E844F8458886D88FB
:1004D0007E888F88988CEE24FF248701AA24BB2471
:1004E000650140E050E060E070E0E0E0F0E0C10174
:1004F00081709070892BE9F0E60CF71C081D191D1E
:100500009A01AB012A0D3B1D4C1D5D1D80E090E062
:10051000A0E0B0E0E614F7040805190520F481E036
:1005200090E0A0E0B0E0BA01A901480F591F6A1F8E
:100530007B1FAA0CBB1CCC1CDD1C97FE08C081E0F5
:1005400090E0A0E0B0E0A82AB92ACA2ADB2A3196B6
:10055000E032F10549F0660C771C881C991C569412
:10056000479437942794C3CFFA85EA892B893C892D
:100570008B859C85280F391F2E5F3F4F17C0CA01FE
:1005800081709070892B61F016950795F794E79428
:1005900080E090E0A0E0B0E8E82AF92A0A2B1B2BC3
:1005A00076956795579547952F5F3F4F77FDE7CF36
:1005B0000CC0440F551F661F771F17FD4160EE0CDE
:1005C000FF1C001F111F21503040403090E05907A0
:1005D00090E0690790E4790760F32B8F3C8FDB0193
:1005E000CA018F779070A070B07080349105A1051A
:1005F000B10561F447FD0AC0E114F10401051105DC
:1006000029F0405C5F4F6F4F7F4F40781A8EFE1786
:1006100011F081E08A8F4D8F5E8F6F8F78A383E01A
:10062000898FCE0149960E942F06A096E2E10C9494
:10063000AC20A8E1B0E0EFE1F3E00C9498206983EE
:100640007A838B839C832D833E834F835887B9E0C5
:10065000EB2EF12CEC0EFD1ECE010196B7010E948F
:1006600004078E010F5E1F4FCE010596B8010E9450
:1006700004072985223008F47EC03989323010F40D
:10068000B8017CC08A859A8989278A87243011F02D
:10069000223031F4231709F06EC06DE670E06EC0B1
:1006A000343039F41D861E861F86188A1C861B86E8
:1006B00004C0323021F484E08987B7015FC02B8504
:1006C0003C858B899C89281B390B3C872B87ED84C3
:1006D000FE840F851889AD88BE88CF88D88CEA142F
:1006E000FB040C051D0540F4EE0CFF1C001F111F40
:1006F000215030403C872B8720E030E040E050E044
:1007000080E090E0A0E0B0E460E070E0EA14FB0478
:100710000C051D0540F0282B392B4A2B5B2BEA18C2
:10072000FB080C091D09B695A79597958795EE0CC2
:10073000FF1C001F111F6F5F7F4F6F31710531F775
:10074000DA01C9018F779070A070B0708034910584
:10075000A105B10561F427FD0AC0E114F10401050A
:10076000110529F0205C3F4F4F4F5F4F20782D87B8
:100770003E874F87588BBE01675F7F4FCB010E943A
:100780002F066896EAE00C94B420A8E1B0E0EBEC08
:10079000F3E00C949C2069837A838B839C832D8364
:1007A0003E834F83588789E0E82EF12CEC0EFD1E26
:1007B000CE010196B7010E9404078E010F5E1F4F04
:1007C000CE010596B8010E9404078985823040F069
:1007D0008989823028F0C701B8010E947C0701C0D6
:1007E00081E06896E6E00C94B820A8E1B0E0EBEF79
:1007F000F3E00C949C2069837A838B839C832D8304
:100800003E834F83588789E0E82EF12CEC0EFD1EC5
:10081000CE010196B7010E9404078E010F5E1F4FA3
:10082000CE010596B8010E9404078985823040F008
:100830008989823028F0C701B8010E947C0701C075
:1008400081E06896E6E00C94B820A8E1B0E0EBE225
:10085000F4E00C949C2069837A838B839C832D83A2
:100860003E834F83588789E0E82EF12CEC0EFD1E65
:10087000CE010196B7010E9404078E010F5E1F4F43
:10088000CE010596B8010E9404078985823040F0A8
:100890008989823028F0C701B8010E947C0701C015
:1008A0008FEF6896E6E00C94B820A8E1B0E0EBE5A5
:1008B000F4E00C949C2069837A838B839C832D8342
:1008C0003E834F83588789E0E82EF12CEC0EFD1E05
:1008D000CE010196B7010E9404078E010F5E1F4FE3
:1008E000CE010596B8010E9404078985823040F048
:1008F0008989823028F0C701B8010E947C0701C0B5
:100900008FEF6896E6E00C94B820A8E1B0E0EBE841
:10091000F4E00C949C2069837A838B839C832D83E1
:100920003E834F83588789E0E82EF12CEC0EFD1EA4
:10093000CE010196B7010E9404078E010F5E1F4F82
:10094000CE010596B8010E9404078985823040F0E7
:100950008989823028F0C701B8010E947C0701C054
:1009600081E06896E6E00C94B820A8E0B0E0EBEBFC
:10097000F4E00C9499209B01AC0183E08983DA01B7
:10098000C9018827B7FD83959927AA27BB27B82EC9
:10099000211531054105510519F482E089833AC0DA
:1009A0008823A9F0203080E0380780E0480780E8FD
:1009B000580729F460E070E080E09FEC30C0EE243E
:1009C000FF248701E21AF30A040B150B02C0790118
:1009D0008A018EE1C82ED12CDC82CB82ED82FE8290
:1009E0000F831887C801B7010E94E0050197181608
:1009F000190684F4082E04C0EE0CFF1C001F111F02
:100A00000A94D2F7ED82FE820F831887C81AD90A9A
:100A1000DC82CB82BA82CE0101960E942F062896F4
:100A2000E9E00C94B520ACE0B0E0E9E1F5E00C942D
:100A3000A02069837A838B839C83CE010196BE01BB
:100A40006B5F7F4F0E9404078D81823061F182309D
:100A500050F1843021F48E81882351F12EC02F81F2
:100A6000388537FD20C06E812F3131051CF066239B
:100A7000F9F023C08EE190E0821B930B29853A8523
:100A80004B855C8504C056954795379527958A9583
:100A9000D2F76623B1F050954095309521953F4FA0
:100AA0004F4F5F4F0EC020E030E040E050E009C003
:100AB0002FEF3FEF4FEF5FE704C020E030E040E072
:100AC00050E8B901CA012C96E2E00C94BC20A8E0E1
:100AD000B0E0EDE6F5E00C9498207B018C01611507
:100AE00071058105910519F482E0898360C083E076
:100AF00089838EE1C82ED12CDC82CB82ED82FE82EE
:100B00000F831887C801B7010E94E005FC013197E7
:100B1000F7FF3BC0222733272E1B3F0B57016801ED
:100B2000022E04C0D694C794B794A7940A94D2F71F
:100B300040E050E060E070E081E090E0A0E0B0E0F4
:100B400004C0880F991FAA1FBB1F2A95D2F70197CF
:100B5000A109B1098E219F21A023B1230097A105EE
:100B6000B10521F041E050E060E070E04A295B29E6
:100B70006C297D294D835E836F8378878EE190E0B9
:100B80008E1B9F0B9C838B8312C0309781F00E2E9F
:100B900004C0EE0CFF1C001F111F0A94D2F7ED8257
:100BA000FE820F831887CE1ADF0ADC82CB821A827C
:100BB000CE0101960E942F062896EAE00C94B420FC
:100BC000EF92FF920F931F937B018C0180E0E81658
:100BD00080E0F80681E0080780E0180788F48FEFCE
:100BE000E816F1040105110531F028F088E090E0E5
:100BF000A0E0B0E017C080E090E0A0E0B0E012C05C
:100C000080E0E81680E0F80680E0080781E0180739
:100C100028F088E190E0A0E0B0E004C080E190E03E
:100C2000A0E0B0E020E230E040E050E0281B390BCB
:100C30004A0B5B0B04C016950795F794E7948A95C9
:100C4000D2F7F701EB58FF4F8081281B310941098A
:100C50005109C9011F910F91FF90EF900895DF9204
:100C6000EF92FF920F931F93FC01E480F5800681C1
:100C70001781D1808081823048F480E090E0A0E14B
:100C8000B0E0E82AF92A0A2B1B2BA5C0843009F40E
:100C90009FC0823021F4EE24FF24870105C0E114B7
:100CA000F1040105110519F4E0E0F0E096C062815D
:100CB00073819FEF623879070CF05BC022E83FEF49
:100CC000261B370B2A3131052CF020E030E040E0C4
:100CD00050E02AC0B801A701022E04C0769567959E
:100CE000579547950A94D2F781E090E0A0E0B0E0F4
:100CF00004C0880F991FAA1FBB1F2A95D2F701971E
:100D0000A109B1098E219F21A023B1230097A1053C
:100D1000B10521F081E090E0A0E0B0E09A01AB01E4
:100D2000282B392B4A2B5B2BDA01C9018F77907066
:100D3000A070B07080349105A105B10539F427FF8A
:100D400009C0205C3F4F4F4F5F4F04C0215C3F4FB5
:100D50004F4F5F4FE0E0F0E02030A0E03A07A0E026
:100D60004A07A0E45A0710F0E1E0F0E079018A01B7
:100D700027C06038710564F5FB01E158FF4FD801C9
:100D8000C7018F779070A070B07080349105A10575
:100D9000B10539F4E7FE0DC080E490E0A0E0B0E0DA
:100DA00004C08FE390E0A0E0B0E0E80EF91E0A1F57
:100DB0001B1F17FF05C016950795F794E79431960A
:100DC00087E016950795F794E7948A95D1F705C0C3
:100DD000EE24FF248701EFEFF0E06E2F6795662782
:100DE0006795902F9F77D794DD24D7948E2F869583
:100DF000492F462B582F5D29B701CA011F910F912A
:100E0000FF90EF90DF900895FC01DB01408151815C
:100E10002281622F6F7770E0221F2227221F938189
:100E2000892F880F822B282F30E0991F9927991F2F
:100E300011969C93119721153105A9F5411551057E
:100E40006105710511F482E037C082E89FEF1396C7
:100E50009C938E9312979A01AB0167E0220F331F88
:100E6000441F551F6A95D1F783E08C930DC0220F64
:100E7000331F441F551F12968D919C911397019714
:100E800013969C938E931297203080E0380780E071
:100E9000480780E4580758F314962D933D934D93DB
:100EA0005C93179708952F3F310579F4411551054B
:100EB0006105710519F484E08C93089564FF03C003
:100EC00081E08C9312C01C9210C02F5730401396B3
:100ED0003C932E93129783E08C9387E0440F551F29
:100EE000661F771F8A95D1F7706414964D935D93B2
:100EF0006D937C93179708951F93DC01FB019C91E0
:100F0000923008F447C08081823008F443C09430A6
:100F100051F411961C91843099F58181682F70E00D
:100F2000611B71093FC0843021F0923031F482306E
:100F3000B9F18181882389F12DC011961C911197F7
:100F40008230F1F081811817D9F412962D913C91DD
:100F50001397828193818217930794F0281739079A
:100F6000BCF014968D919D910D90BC91A02D248183
:100F7000358146815781281739074A075B0718F4DE
:100F8000112341F00AC082179307A407B50740F464
:100F9000112319F061E070E005C06FEF7FEF02C030
:100FA00060E070E0CB011F910895DF93CF93CDB740
:100FB000DEB72D970FB6F894DEBF0FBECDBF898385
:100FC0006A834B838981843008F0B5C18A81883077
:100FD00008F0B1C18981282F30E03D872C878C85AE
:100FE0009D858130910509F47BC02C853D8522309B
:100FF00031052CF48C859D85009771F09CC12C8562
:101000003D852230310509F4CFC08C859D85833024
:10101000910509F42DC18FC18B81282F30E03B87CA
:101020002A878A859B858130910599F12A853B85A0
:101030002230310529F08A859B850097A9F07BC174
:10104000AAE3B0E0EAE3F0E08081482F8A81282F0C
:1010500030E081E090E0022E02C0880F991F0A94D0
:10106000E2F7842B8C9367C1AAE3B0E0EAE3F0E0F7
:101070008081482F8A81282F30E081E090E0022E85
:1010800002C0880F991F0A94E2F7809584238C93FD
:1010900052C1AAE3B0E0EAE3F0E08081482F8A8100
:1010A000282F30E081E090E002C0880F991F2A9538
:1010B000E2F7809584238C93ABE3B0E0EBE3F0E0C0
:1010C0008081482F8A81282F30E081E090E0022E35
:1010D00002C0880F991F0A94E2F7842B8C932BC1CE
:1010E0008B81282F30E03987288788859985813042
:1010F000910599F1288539852230310529F08885B7
:1011000099850097A9F017C1A7E3B0E0E7E3F0E005
:101110008081482F8A81282F30E081E090E0022EE4
:1011200002C0880F991F0A94E2F7842B8C9303C1A5
:10113000A7E3B0E0E7E3F0E08081482F8A81282F21
:1011400030E081E090E0022E02C0880F991F0A94DF
:10115000E2F7809584238C93EEC0A7E3B0E0E7E349
:10116000F0E08081482F8A81282F30E081E090E0F4
:1011700002C0880F991F2A95E2F7809584238C93EB
:10118000A8E3B0E0E8E3F0E08081482F8A81282FCF
:1011900030E081E090E0022E02C0880F991F0A948F
:1011A000E2F7842B8C93C7C08B81282F30E03F83DC
:1011B0002E838E819F818130910599F12E813F810F
:1011C0002230310529F08E819F810097A9F0B3C0AC
:1011D000A4E3B0E0E4E3F0E08081482F8A81282F87
:1011E00030E081E090E0022E02C0880F991F0A943F
:1011F000E2F7842B8C939FC0A4E3B0E0E4E3F0E03B
:101200008081482F8A81282F30E081E090E0022EF3
:1012100002C0880F991F0A94E2F7809584238C936B
:101220008AC0A4E3B0E0E4E3F0E08081482F8A8143
:10123000282F30E081E090E002C0880F991F2A95A6
:10124000E2F7809584238C93A5E3B0E0E5E3F0E03A
:101250008081482F8A81282F30E081E090E0022EA3
:1012600002C0880F991F0A94E2F7842B8C9363C005
:101270008B81282F30E03D832C838C819D818130B0
:10128000910599F12C813D812230310529F08C8125
:101290009D810097A9F04FC0A1E3B0E0E1E3F0E049
:1012A0008081482F8A81282F30E081E090E0022E53
:1012B00002C0880F991F0A94E2F7842B8C933BC0DD
:1012C000A1E3B0E0E1E3F0E08081482F8A81282F9C
:1012D00030E081E090E0022E02C0880F991F0A944E
:1012E000E2F7809584238C9326C0A1E3B0E0E1E38C
:1012F000F0E08081482F8A81282F30E081E090E063
:1013000002C0880F991F2A95E2F7809584238C9359
:10131000A2E3B0E0E2E3F0E08081482F8A81282F49
:1013200030E081E090E0022E02C0880F991F0A94FD
:10133000E2F7842B8C932D960FB6F894DEBF0FBE88
:10134000CDBFCF91DF910895DF93CF9300D000D030
:10135000CDB7DEB789836A838981843090F589812E
:10136000282F30E03C832B838B819C818130910539
:10137000D1F02B813C81223031052CF48B819C8172
:10138000009761F01EC02B813C812230310581F035
:101390008B819C818330910581F013C0EAE3F0E0FA
:1013A0008A8180830EC0E7E3F0E08A81808309C0F0
:1013B000E4E3F0E08A81808304C0E1E3F0E08A8125
:1013C00080830F900F900F900F90CF91DF91089531
:1013D000DF93CF9300D000D00F92CDB7DEB78983D3
:1013E0006A834B838981843008F0D5C08A81883034
:1013F00008F0D1C08981282F30E03D832C838C8177
:101400009D818130910509F443C02C813D812230BA
:1014100031052CF48C819D81009771F0BCC02C812A
:101420003D812230310509F45FC08C819D8183307C
:10143000910509F485C0AFC08B818130A1F4ABE385
:10144000B0E0EBE3F0E08081482F8A81282F30E084
:1014500081E090E0022E02C0880F991F0A94E2F703
:10146000842B8C9398C0ABE3B0E0EBE3F0E0808199
:10147000482F8A81282F30E081E090E0022E02C0C0
:10148000880F991F0A94E2F7809584238C9383C078
:101490008B818130A1F4A8E3B0E0E8E3F0E0808143
:1014A000482F8A81282F30E081E090E0022E02C090
:1014B000880F991F0A94E2F7842B8C936CC0A8E3E1
:1014C000B0E0E8E3F0E08081482F8A81282F30E007
:1014D00081E090E0022E02C0880F991F0A94E2F783
:1014E000809584238C9357C08B818130A1F4A5E330
:1014F000B0E0E5E3F0E08081482F8A81282F30E0DA
:1015000081E090E0022E02C0880F991F0A94E2F752
:10151000842B8C9340C0A5E3B0E0E5E3F0E080814C
:10152000482F8A81282F30E081E090E0022E02C00F
:10153000880F991F0A94E2F7809584238C932BC01F
:101540008B818130A1F4A2E3B0E0E2E3F0E080819E
:10155000482F8A81282F30E081E090E0022E02C0DF
:10156000880F991F0A94E2F7842B8C9314C0A2E38E
:10157000B0E0E2E3F0E08081482F8A81282F30E05C
:1015800081E090E0022E02C0880F991F0A94E2F7D2
:10159000809584238C930F900F900F900F900F9055
:1015A000CF91DF910895DF93CF9300D000D0CDB7D6
:1015B000DEB789836A838981843090F58981282FF9
:1015C00030E03C832B838B819C8181309105D1F06D
:1015D0002B813C81223031052CF48B819C8100973A
:1015E00061F01EC02B813C812230310581F08B815E
:1015F0009C818330910581F013C0EBE3F0E08A8198
:1016000080830EC0E8E3F0E08A81808309C0E5E3CF
:10161000F0E08A81808304C0E2E3F0E08A81808385
:101620000F900F900F900F90CF91DF910895DF935F
:10163000CF9300D000D00F92CDB7DEB78A836B83F3
:1016400019828A81843008F09DC08B81883008F02F
:1016500099C08A81282F30E03D832C834C815D81A5
:1016600041305105B1F18C819D818230910534F476
:101670002C813D812115310571F084C04C815D8143
:101680004230510509F443C08C819D81833091051E
:1016900009F45BC077C0E9E3F0E08081482F50E0B7
:1016A0008B81282F30E081E090E002C0880F991FE5
:1016B0002A95E2F79A01282339238B81882F90E01D
:1016C000A90102C0559547958A95E2F7CA01898319
:1016D00059C0E6E3F0E08081482F50E08B81282F4D
:1016E00030E081E090E002C0880F991F2A95E2F770
:1016F0009A01282339238B81882F90E0A90102C009
:10170000559547958A95E2F7CA0189833BC0E3E383
:10171000F0E08081482F50E08B81282F30E081E07D
:1017200090E002C0880F991F2A95E2F79A012823BA
:1017300039238B81882F90E0A90102C055954795E8
:101740008A95E2F7CA0189831DC0E0E3F0E0808159
:10175000482F50E08B81282F30E081E090E002C0DC
:10176000880F991F2A95E2F79A01282339238B8144
:10177000882F90E0A90102C0559547958A95E2F718
:10178000CA01898389810F900F900F900F900F905D
:10179000CF91DF910895DF93CF9300D000D0CDB7E4
:1017A000DEB78A8319828A81843090F58A81282F56
:1017B00030E03C832B838B819C8181309105D1F07B
:1017C0002B813C81223031052CF48B819C81009748
:1017D00061F01EC02B813C812230310581F08B816C
:1017E0009C818330910581F013C0E9E3F0E08081B2
:1017F00089830EC0E6E3F0E08081898309C0E3E3DA
:10180000F0E08081898304C0E0E3F0E08081898397
:1018100089810F900F900F900F90CF91DF910895D5
:10182000DF93CF930F92CDB7DEB780E060E040E06A
:101830000E94E80980E061E041E00E94E80980E060
:1018400062E041E00E94E80980E063E041E00E943C
:10185000E80980E064E00E94170B882319F481E016
:101860008983C4C080E065E00E94170B882319F4C7
:1018700082E08983BBC080E066E00E94170B88236A
:1018800019F483E08983B2C080E067E00E94170BFF
:10189000882319F48AE08983A9C080E060E041E0F0
:1018A0000E94E80980E061E040E00E94E80980E0F1
:1018B00062E041E00E94E80980E063E041E00E94CC
:1018C000E80980E064E00E94170B882319F484E0A3
:1018D00089838CC080E065E00E94170B882319F48F
:1018E00085E0898383C080E066E00E94170B88232F
:1018F00019F486E089837AC080E067E00E94170BC4
:10190000882319F48BE0898371C080E060E041E0B6
:101910000E94E80980E061E041E00E94E80980E07F
:1019200062E040E00E94E80980E063E041E00E945C
:10193000E80980E064E00E94170B882319F487E02F
:10194000898354C080E065E00E94170B882319F456
:1019500088E089834BC080E066E00E94170B8823F3
:1019600019F489E0898342C080E067E00E94170B88
:10197000882319F48CE0898339C080E060E041E07D
:101980000E94E80980E061E041E00E94E80980E00F
:1019900062E041E00E94E80980E063E040E00E94EC
:1019A000E80980E064E00E94170B882319F48EE0B8
:1019B00089831CC080E065E00E94170B882311F426
:1019C000198214C080E066E00E94170B882319F486
:1019D0008FE089830BC080E067E00E94170B8823AB
:1019E00019F48DE0898302C080E1898389810F9099
:1019F000CF91DF910895DF93CF9300D0CDB7DEB7BD
:101A00009A83898380E060E040E00E94E80980E0FA
:101A100061E041E00E94E80980E062E041E00E946C
:101A2000E80980E063E041E00E94E80980E064E0CA
:101A30000E94170B882359F4E981FA8187E3808398
:101A400089819A81FC01319687E0808332C080E0F1
:101A500065E00E94170B882359F4E981FA8188E335
:101A6000808389819A81FC01319688E0808321C03E
:101A700080E066E00E94170B882359F4E981FA811F
:101A800089E3808389819A81FC01319689E0808392
:101A900010C080E067E00E94170B882351F4E981B1
:101AA000FA818FE2808389819A81FC01319680E3FB
:101AB000808380E060E041E00E94E80980E061E02E
:101AC00040E00E94E80980E062E041E00E94E8090D
:101AD00080E063E041E00E94E80980E064E00E9469
:101AE000170B882359F4E981FA8184E38083898183
:101AF0009A81FC01319684E0808332C080E065E009
:101B00000E94170B882359F4E981FA8185E38083C9
:101B100089819A81FC01319685E0808321C080E033
:101B200066E00E94170B882359F4E981FA8186E365
:101B3000808389819A81FC01319686E0808310C080
:101B400080E067E00E94170B882351F4E981FA8155
:101B500088E7808389819A81FC01319680E38083C4
:101B600080E060E041E00E94E80980E061E041E05F
:101B70000E94E80980E062E040E00E94E80980E01D
:101B800063E041E00E94E80980E064E00E94170BF6
:101B9000882359F4E981FA8181E3808389819A81DC
:101BA000FC01319681E0808332C080E065E00E94D4
:101BB000170B882359F4E981FA8182E380838981B4
:101BC0009A81FC01319682E0808321C080E066E04A
:101BD0000E94170B882359F4E981FA8183E38083FB
:101BE00089819A81FC01319683E0808310C080E076
:101BF00067E00E94170B882351F4E981FA818DE296
:101C0000808389819A81FC01319680E3808380E022
:101C100060E041E00E94E80980E061E041E00E946C
:101C2000E80980E062E041E00E94E80980E063E0CA
:101C300040E00E94E80980E064E00E94170B8823DE
:101C400059F4E981FA8181E6808389819A81FC01D6
:101C5000319680E3808331C080E065E00E94170BFD
:101C6000882351F4E981FA8180E3808389819A8114
:101C7000FC013196108221C080E066E00E94170BC3
:101C8000882359F4E981FA818DE3808389819A81DF
:101C9000FC01319685E6808310C080E067E00E94F9
:101CA000170B882351F4E981FA818BE280838981C3
:101CB0009A81FC01319680E380830F900F90CF9141
:101CC000DF9108950F931F93DF93CF93CDB7DEB7C6
:101CD000C455D0400FB6F894DEBF0FBECDBFFE0195
:101CE000EF5AFF4F80E090E0A0EFB1E48083918352
:101CF000A283B3838E01035B1F4FFE01EF5AFF4F98
:101D0000608171818281938120E030E04AE755E46F
:101D10000E941F02DC01CB01F80180839183A28322
:101D2000B383FE01E35BFF4F608171818281938108
:101D300020E030E040E85FE30E948504882344F41B
:101D4000FE01E55BFF4F81E090E09183808364C0FA
:101D5000FE01E35BFF4F608171818281938120E00E
:101D60003FEF4FE757E40E94250418160CF043C0DC
:101D7000FE01EF5AFF4F608171818281938120E0E3
:101D800030E040E251E40E941F02DC01CB018E01F1
:101D9000055B1F4FBC01CD010E944900DC01CB0156
:101DA000F801918380831FC0FE01E75BFF4F80E94C
:101DB00091E091838083FE01E75BFF4F80819181F9
:101DC0000197F1F7FE01E75BFF4F91838083DE010E
:101DD000A55BBF4FFE01E55BFF4F808191810197BD
:101DE00011969C938E93FE01E55BFF4F808191815C
:101DF0000097D1F627C08E01055B1F4FFE01E35B04
:101E0000FF4F60817181828193810E944900DC01D2
:101E1000CB01F80191838083DE01A95BBF4FFE01F6
:101E2000E55BFF4F808191818D939C93FE01E95B7F
:101E3000FF4F808191810197F1F7FE01E95BFF4F30
:101E40009183808382E00E948A11FE01ED5BFF4F47
:101E500080E090E0A0E7B1E480839183A283B38324
:101E60008E01015C1F4FFE01ED5BFF4F60817181B0
:101E70008281938120E030E04AE755E40E941F020E
:101E8000DC01CB01F80180839183A283B383FE013F
:101E9000FF96608171818281938120E030E040E88B
:101EA0005FE30E94850488232CF481E090E09EAFDC
:101EB0008DAF46C0FE01FF96608171818281938162
:101EC00020E03FEF4FE757E40E942504181664F521
:101ED000FE01ED5BFF4F608171818281938120E083
:101EE00030E040E251E40E941F02DC01CB01BC0162
:101EF000CD010E944900DC01CB019EAF8DAF0FC028
:101F000080E991E09CAF8BAF8BAD9CAD0197F1F771
:101F10009CAF8BAF8DAD9EAD01979EAF8DAF8DAD5C
:101F20009EAD009769F716C0FE01FF966081718132
:101F3000828193810E944900DC01CB019EAF8DAF6D
:101F40008DAD9EAD9AAF89AF89AD9AAD0197F1F78E
:101F50009AAF89AF88E30E948A1180E090E0A0E800
:101F6000BFE38DAB9EABAFABB8AF6DA97EA98FA918
:101F700098AD20E030E04AE755E40E941F02DC0102
:101F8000CB0189AB9AABABABBCAB69A97AA98BA9E6
:101F90009CA920E030E040E85FE30E9485048823AC
:101FA0002CF481E090E098AB8FA73FC069A97AA993
:101FB0008BA99CA920E03FEF4FE757E40E9425043E
:101FC00018164CF56DA97EA98FA998AD20E030E0D8
:101FD00040E251E40E941F02DC01CB01BC01CD01B3
:101FE0000E944900DC01CB0198AB8FA70FC080E9AC
:101FF00091E09EA78DA78DA59EA50197F1F79EA7BD
:102000008DA78FA598A9019798AB8FA78FA598A9A1
:10201000009769F714C069A97AA98BA99CA90E94A5
:102020004900DC01CB0198AB8FA78FA598A99CA78D
:102030008BA78BA59CA50197F1F79CA78BA78CE09C
:102040000E948A1180E090E0A0E8BFE38FA398A7E8
:10205000A9A7BAA76FA178A589A59AA520E030E025
:102060004AE755E40E941F02DC01CB018BA39CA32D
:10207000ADA3BEA36BA17CA18DA19EA120E030E009
:1020800040E85FE30E94850488232CF481E090E01F
:102090009AA389A33FC06BA17CA18DA19EA120E042
:1020A0003FEF4FE757E40E94250418164CF56FA147
:1020B00078A589A59AA520E030E040E251E40E948D
:1020C0001F02DC01CB01BC01CD010E944900DC01F3
:1020D000CB019AA389A30FC080E991E098A38F8FC9
:1020E0008F8D98A10197F1F798A38F8F89A19AA15D
:1020F00001979AA389A389A19AA1009769F714C0AF
:102100006BA17CA18DA19EA10E944900DC01CB01A5
:102110009AA389A389A19AA19E8F8D8F8D8D9E8D63
:102120000197F1F79E8F8D8F81E00E948A1180E0E8
:1021300090E0A0E7B1E4898F9A8FAB8FBC8F698D57
:102140007A8D8B8D9C8D20E030E04AE755E40E942B
:102150001F02DC01CB018D8B9E8BAF8BB88F6D89FD
:102160007E898F89988D20E030E040E85FE30E940F
:10217000850488232CF481E090E09C8B8B8B3FC0FE
:102180006D897E898F89988D20E03FEF4FE757E476
:102190000E94250418164CF5698D7A8D8B8D9C8DC7
:1021A00020E030E040E251E40E941F02DC01CB015C
:1021B000BC01CD010E944900DC01CB019C8B8B8BC3
:1021C0000FC080E991E09A8B898B89899A89019760
:1021D000F1F79A8B898B8B899C8901979C8B8B8BD0
:1021E0008B899C89009769F714C06D897E898F89D6
:1021F000988D0E944900DC01CB019C8B8B8B8B89D5
:102200009C89988B8F878F8598890197F1F7988B98
:102210008F8786E00E948A1180E090E0A0E0B0E421
:102220008B879C87AD87BE876B857C858D859E85DA
:1022300020E030E04AE755E40E941F02DC01CB01B8
:102240008F839887A987BA876F81788589859A85D2
:1022500020E030E040E85FE30E94850488232CF40E
:1022600081E090E09E838D833FC06F817885898572
:102270009A8520E03FEF4FE757E40E9425041816A7
:102280004CF56B857C858D859E8520E030E040E2B5
:1022900051E40E941F02DC01CB01BC01CD010E9470
:1022A0004900DC01CB019E838D830FC080E991E062
:1022B0009C838B838B819C810197F1F79C838B831B
:1022C0008D819E8101979E838D838D819E81009754
:1022D00069F714C06F81788589859A850E944900C5
:1022E000DC01CB019E838D838D819E819A838983BE
:1022F00089819A810197F1F79A838983CC5ADF4FBC
:102300000FB6F894DEBF0FBECDBFCF91DF911F9106
:102310000F910895DF93CF93CDB7DEB76D970FB6CA
:10232000F894DEBF0FBECDBF8D8F82E065E040E048
:102330000E94E80982E066E040E00E94E80982E04D
:1023400067E041E00E94E80983E06D8D0E94D30AB6
:1023500082E067E040E00E94E80980E090E0A0EAC7
:10236000B0E4898F9A8FAB8FBC8F698D7A8D8B8DFE
:102370009C8D20E030E04AE755E40E941F02DC011A
:10238000CB018D8B9E8BAF8BB88F6D897E898F89AA
:10239000988D20E030E040E85FE30E9485048823C8
:1023A0002CF481E090E09C8B8B8B3FC06D897E8903
:1023B0008F89988D20E03FEF4FE757E40E94250476
:1023C00018164CF5698D7A8D8B8D9C8D20E030E050
:1023D00040E251E40E941F02DC01CB01BC01CD01AF
:1023E0000E944900DC01CB019C8B8B8B0FC080E9E4
:1023F00091E09A8B898B89899A890197F1F79A8B59
:10240000898B8B899C8901979C8B8B8B8B899C8971
:10241000009769F714C06D897E898F89988D0E9415
:102420004900DC01CB019C8B8B8B8B899C89988B21
:102430008F878F8598890197F1F7988B8F8782E036
:1024400067E041E00E94E80980E090E0A0E2B1E4AA
:102450008B879C87AD87BE876B857C858D859E85A8
:1024600020E030E04AE755E40E941F02DC01CB0186
:102470008F839887A987BA876F81788589859A85A0
:1024800020E030E040E85FE30E94850488232CF4DC
:1024900081E090E09E838D833FC06F817885898540
:1024A0009A8520E03FEF4FE757E40E942504181675
:1024B0004CF56B857C858D859E8520E030E040E283
:1024C00051E40E941F02DC01CB01BC01CD010E943E
:1024D0004900DC01CB019E838D830FC080E991E030
:1024E0009C838B838B819C810197F1F79C838B83E9
:1024F0008D819E8101979E838D838D819E81009722
:1025000069F714C06F81788589859A850E94490092
:10251000DC01CB019E838D838D819E819A8389838B
:1025200089819A810197F1F79A8389836D960FB615
:10253000F894DEBF0FBECDBFCF91DF910895DF933A
:10254000CF93CDB7DEB76D970FB6F894DEBF0FBE51
:10255000CDBF8D8F82E065E041E00E94E80982E016
:1025600066E040E00E94E80982E067E041E00E9406
:10257000E80983E06D8D0E94D30A82E067E040E0C5
:102580000E94E80980E090E0A0EAB0E4898F9A8F89
:10259000AB8FBC8F698D7A8D8B8D9C8D20E030E068
:1025A0004AE755E40E941F02DC01CB018D8B9E8B14
:1025B000AF8BB88F6D897E898F89988D20E030E050
:1025C00040E85FE30E94850488232CF481E090E0DA
:1025D0009C8B8B8B3FC06D897E898F89988D20E085
:1025E0003FEF4FE757E40E94250418164CF5698D1C
:1025F0007A8D8B8D9C8D20E030E040E251E40E948A
:102600001F02DC01CB01BC01CD010E944900DC01AD
:10261000CB019C8B8B8B0FC080E991E09A8B898BCF
:1026200089899A890197F1F79A8B898B8B899C8983
:1026300001979C8B8B8B8B899C89009769F714C0C1
:102640006D897E898F89988D0E944900DC01CB01BC
:102650009C8B8B8B8B899C89988B8F878F85988996
:102660000197F1F7988B8F8782E067E041E00E9445
:10267000E80980E090E0A0E2B1E48B879C87AD8719
:10268000BE876B857C858D859E8520E030E04AE79E
:1026900055E40E941F02DC01CB018F839887A98734
:1026A000BA876F81788589859A8520E030E040E897
:1026B0005FE30E94850488232CF481E090E09E83F0
:1026C0008D833FC06F81788589859A8520E03FEFB3
:1026D0004FE757E40E94250418164CF56B857C855E
:1026E0008D859E8520E030E040E251E40E941F028B
:1026F000DC01CB01BC01CD010E944900DC01CB0112
:102700009E838D830FC080E991E09C838B838B81B6
:102710009C810197F1F79C838B838D819E8101972A
:102720009E838D838D819E81009769F714C06F8190
:10273000788589859A850E944900DC01CB019E83BA
:102740008D838D819E819A83898389819A81019766
:10275000F1F79A8389836D960FB6F894DEBF0FBEAA
:10276000CDBFCF91DF910895DF93CF93CDB7DEB783
:1027700062970FB6F894DEBF0FBECDBF998B888BE2
:102780006A8B1F861F8680C08F85282F30E088893E
:102790009989FC01E20FF31F80810E949F1280E063
:1027A00090E0A0E0B0E48B879C87AD87BE876B8507
:1027B0007C858D859E8520E030E04AE755E40E94C7
:1027C0001F02DC01CB018F839887A987BA876F81AD
:1027D000788589859A8520E030E040E85FE30E94B3
:1027E000850488232CF481E090E09E838D833FC094
:1027F0006F81788589859A8520E03FEF4FE757E420
:102800000E94250418164CF56B857C858D859E8568
:1028100020E030E040E251E40E941F02DC01CB01E5
:10282000BC01CD010E944900DC01CB019E838D8358
:102830000FC080E991E09C838B838B819C81019701
:10284000F1F79C838B838D819E8101979E838D837D
:102850008D819E81009769F714C06F817885898585
:102860009A850E944900DC01CB019E838D838D8176
:102870009E819A83898389819A810197F1F79A834E
:1028800089838F858F5F8F879F858A89981708F442
:102890007BCF62960FB6F894DEBF0FBECDBFCF914F
:1028A000DF910895DF93CF9300D000D0CDB7DEB78E
:1028B00089836A838A818823E1F08A818131C8F41F
:1028C0008981282F30E03C832B838B819C81813050
:1028D000910531F02B813C812230310531F009C066
:1028E0008A8181580E948A1104C08A8181540E9481
:1028F0008A110F900F900F900F90CF91DF91089554
:10290000DF93CF93CDB7DEB762970FB6F894DEBFF3
:102910000FBECDBF898B6A8B80E40E948A11188A12
:102920000CC08889882F90E0FC01EB58FE4F808115
:102930000E949F1288898F5F888B8889803488F3F2
:1029400080E80E948A1189896A890E9452141F8630
:1029500078C08F850E949F1280E090E0A0EAB0E4EA
:102960008B879C87AD87BE876B857C858D859E8593
:1029700020E030E04AE755E40E941F02DC01CB0171
:102980008F839887A987BA876F81788589859A858B
:1029900020E030E040E85FE30E94850488232CF4C7
:1029A00081E090E09E838D833FC06F81788589852B
:1029B0009A8520E03FEF4FE757E40E942504181660
:1029C0004CF56B857C858D859E8520E030E040E26E
:1029D00051E40E941F02DC01CB01BC01CD010E9429
:1029E0004900DC01CB019E838D830FC080E991E01B
:1029F0009C838B838B819C810197F1F79C838B83D4
:102A00008D819E8101979E838D838D819E8100970C
:102A100069F714C06F81788589859A850E9449007D
:102A2000DC01CB019E838D838D819E819A83898376
:102A300089819A810197F1F79A8389838F858F5FC6
:102A40008F878F85883008F484CF62960FB6F8940C
:102A5000DEBF0FBECDBFCF91DF910895DF93CF933F
:102A6000CDB7DEB71092F4011092F3011092F2018B
:102A700080E090E0A0E0B0E08093B6019093B701D1
:102A8000A093B801B093B9011092F501CF91DF91F5
:102A90000895DF93CF930F92CDB7DEB789838981F5
:102AA0008A3090F48981803379F08091F501882310
:102AB00031F08091F50181508093F50102C01092B0
:102AC000F50189810E945D160F90CF91DF910895E5
:102AD0000F931F93DF93CF93CDB7DEB78091F201B1
:102AE000082F10E08091F3019091F401CC01A0E057
:102AF000B0E0BC01CD010E9467059B01AC01C8019B
:102B0000880F991F880F991FFC01EA54FE4F2083FC
:102B10003183428353831092F4011092F301809128
:102B2000F2018F5F8093F201CF91DF911F910F919E
:102B30000895DF93CF930F92CDB7DEB789830E94BC
:102B400068158091F5018F5F8093F5018981883741
:102B5000C9F48091F201882F90E0880F991F880FA7
:102B6000991FFC01EA54FE4F80E090E0A0EFB2E430
:102B700080839183A283B3838091F2018F5F8093DE
:102B8000F2015DC089818F32C9F48091F201882FF2
:102B900090E0880F991F880F991FFC01EA54FE4F9F
:102BA00080E090E0ACE3B2E480839183A283B383BE
:102BB0008091F2018F5F8093F20141C089818B3255
:102BC000C9F48091F201882F90E0880F991F880F37
:102BD000991FFC01EA54FE4F80E090E0ACE2B2E4C1
:102BE00080839183A283B3838091F2018F5F80936E
:102BF000F20125C089818D32C9F48091F201882FBC
:102C000090E0880F991F880F991FFC01EA54FE4F2E
:102C100080E090E0A4E3B2E480839183A283B38355
:102C20008091F2018F5F8093F20109C08981813622
:102C300021F08091F501823010F00E942E150F9046
:102C4000CF91DF910895DF93CF9300D000D0CDB71F
:102C5000DEB78A837C836B8319820E9468158A8120
:102C60008D3319F50E941B180E9495160E94271B90
:102C70000E94A1192091B6013091B7014091B8018D
:102C80005091B9018B819C81BA01A9010E94B41DA8
:102C900089838B819C8169810E94C31E8B819C8169
:102CA00069810E94AD1C0E942E1589810F900F90A2
:102CB0000F900F90CF91DF910895DF93CF9300D0C5
:102CC000CDB7DEB78A838AE089830EC08981882FD9
:102CD00090E09C01220F331FC901880F991F880FB4
:102CE000991F820F931F89839A818981981770F7A2
:102CF0008981282F30E08091F3019091F401A9019E
:102D0000489F9001499F300D589F300D11248A81B2
:102D1000882F90E0820F931F9093F4018093F3012A
:102D20000F900F90CF91DF910895CF92DF92EF92A5
:102D3000FF920F931F93DF93CF9300D00F92CDB7E5
:102D4000DEB781E0898365C18981882F90E0880F93
:102D5000991F880F991FFC01EA54FE4F80819181D1
:102D6000A281B381BC01CD0120E030E040EF52E40C
:102D70000E94C503882309F049C1898181508A8353
:102D800003C08A8181508A838A81882F90E0880FCE
:102D9000991F880F991FFC01EA54FE4F8081918191
:102DA000A281B381BC01CD0120E030E04CED52E4C2
:102DB0000E94C503882329F38A81882F90E0880F19
:102DC000991F880F991FFC01EA54FE4F8081918161
:102DD000A281B381BC01CD0120E030E040EF52E49C
:102DE0000E94C503882369F28A81882F90E0880FAA
:102DF000991F880F991FFC01EA54FE4F8081918131
:102E0000A281B381BC01CD0120E030E04CE352E46B
:102E10000E94C503882309F4B4CF8A81882F90E0EB
:102E2000880F991F880F991FFC01EA54FE4F80817B
:102E30009181A281B381BC01CD0120E030E04CE260
:102E400052E40E94C503882309F49BCF8A81882F0E
:102E500090E0880F991F880F991FFC01EA54FE4FDC
:102E600080819181A281B381BC01CD0120E030E05D
:102E700044E352E40E94C503882309F482CF898188
:102E80008F5F8B8303C08B818F5F8B838B81882FB8
:102E900090E0880F991F880F991FFC01EA54FE4F9C
:102EA00080819181A281B381BC01CD0120E030E01D
:102EB0004CED52E40E94C503882329F38B81882FAF
:102EC00090E0880F991F880F991FFC01EA54FE4F6C
:102ED00080819181A281B381BC01CD0120E030E0ED
:102EE00040EF52E40E94C503882369F28A81882F4B
:102EF00090E0880F991F880F991FFC01EA54FE4F3C
:102F000080819181A281B381BC01CD0120E030E0BC
:102F10004CE352E40E94C503882309F4B4CF8A81AC
:102F2000882F90E0880F991F880F991FFC01EA54A1
:102F3000FE4F80819181A281B381BC01CD0120E04F
:102F400030E04CE252E40E94C503882309F49BCF91
:102F50008A81882F90E0880F991F880F991FFC01A4
:102F6000EA54FE4F80819181A281B381BC01CD01E1
:102F700020E030E044E352E40E94C503882309F4D2
:102F800082CF8A81C82EDD248A81882F90E0880F25
:102F9000991F880F991FFC01EA54FE4FE080F180D1
:102FA000028113818B81882F90E0880F991F880FF1
:102FB000991FFC01EA54FE4F2081318142815381E7
:102FC000C801B7010E941F02DC01CB019C01AD01C9
:102FD000C601880F991F880F991FFC01EA54FE4F04
:102FE00020833183428353838B81882F90E0880F25
:102FF000991F880F991FFC01EA54FE4F80E090E072
:10300000ACEDB2E480839183A283B38389818F5F27
:1030100089839091F2018981891708F495CE0F90E8
:103020000F900F90CF91DF911F910F91FF90EF9034
:10303000DF90CF900895CF92DF92EF92FF920F939F
:103040001F93DF93CF9300D00F92CDB7DEB781E00F
:10305000898365C18981882F90E0880F991F880F27
:10306000991FFC01EA54FE4F80819181A281B381B6
:10307000BC01CD0120E030E04CE352E40E94C503E6
:10308000882309F049C1898181508A8303C08A81DC
:1030900081508A838A81882F90E0880F991F880F3A
:1030A000991FFC01EA54FE4F80819181A281B38176
:1030B000BC01CD0120E030E04CED52E40E94C5039C
:1030C000882329F38A81882F90E0880F991F880F21
:1030D000991FFC01EA54FE4F80819181A281B38146
:1030E000BC01CD0120E030E040EF52E40E94C50376
:1030F000882369F28A81882F90E0880F991F880FB2
:10310000991FFC01EA54FE4F80819181A281B38115
:10311000BC01CD0120E030E04CE352E40E94C50345
:10312000882309F4B4CF8A81882F90E0880F991FF3
:10313000880F991FFC01EA54FE4F80819181A28182
:10314000B381BC01CD0120E030E04CE252E40E94AA
:10315000C503882309F49BCF8A81882F90E0880FCC
:10316000991F880F991FFC01EA54FE4F80819181BD
:10317000A281B381BC01CD0120E030E044E352E400
:103180000E94C503882309F482CF89818F5F8B83D6
:1031900003C08B818F5F8B838B81882F90E0880F9A
:1031A000991F880F991FFC01EA54FE4F808191817D
:1031B000A281B381BC01CD0120E030E04CED52E4AE
:1031C0000E94C503882329F38B81882F90E0880F04
:1031D000991F880F991FFC01EA54FE4F808191814D
:1031E000A281B381BC01CD0120E030E040EF52E488
:1031F0000E94C503882369F28A81882F90E0880F96
:10320000991F880F991FFC01EA54FE4F808191811C
:10321000A281B381BC01CD0120E030E04CE352E457
:103220000E94C503882309F4B4CF8A81882F90E0D7
:10323000880F991F880F991FFC01EA54FE4F808167
:103240009181A281B381BC01CD0120E030E04CE24C
:1032500052E40E94C503882309F49BCF8A81882FFA
:1032600090E0880F991F880F991FFC01EA54FE4FC8
:1032700080819181A281B381BC01CD0120E030E049
:1032800044E352E40E94C503882309F482CF8A8173
:10329000C82EDD248A81882F90E0880F991F880F1F
:1032A000991FFC01EA54FE4FE080F18002811381F6
:1032B0008B81882F90E0880F991F880F991FFC0140
:1032C000EA54FE4F2081318142815381C801B70108
:1032D0000E941903DC01CB019C01AD01C601880FDE
:1032E000991F880F991FFC01EA54FE4F20833183F8
:1032F000428353838B81882F90E0880F991F880F1A
:10330000991FFC01EA54FE4F80E090E0ACEDB2E47E
:1033100080839183A283B38389818F5F8983909116
:10332000F2018981891708F495CE0F900F900F90C4
:10333000CF91DF911F910F91FF90EF90DF90CF9091
:103340000895CF92DF92EF92FF920F931F93DF9336
:10335000CF9300D00F92CDB7DEB781E0898365C1EE
:103360008981882F90E0880F991F880F991FFC0191
:10337000EA54FE4F80819181A281B381BC01CD01CD
:1033800020E030E04CE252E40E94C503882309F0BB
:1033900049C1898181508A8303C08A8181508A838F
:1033A0008A81882F90E0880F991F880F991FFC0150
:1033B000EA54FE4F80819181A281B381BC01CD018D
:1033C00020E030E04CED52E40E94C503882329F34D
:1033D0008A81882F90E0880F991F880F991FFC0120
:1033E000EA54FE4F80819181A281B381BC01CD015D
:1033F00020E030E040EF52E40E94C503882369F2E8
:103400008A81882F90E0880F991F880F991FFC01EF
:10341000EA54FE4F80819181A281B381BC01CD012C
:1034200020E030E04CE352E40E94C503882309F415
:10343000B4CF8A81882F90E0880F991F880F991F39
:10344000FC01EA54FE4F80819181A281B381BC01CD
:10345000CD0120E030E04CE252E40E94C503882315
:1034600009F49BCF8A81882F90E0880F991F880FDD
:10347000991FFC01EA54FE4F80819181A281B381A2
:10348000BC01CD0120E030E044E352E40E94C503DA
:10349000882309F482CF89818F5F8B8303C08B815E
:1034A0008F5F8B838B81882F90E0880F991F880F07
:1034B000991FFC01EA54FE4F80819181A281B38162
:1034C000BC01CD0120E030E04CED52E40E94C50388
:1034D000882329F38B81882F90E0880F991F880F0C
:1034E000991FFC01EA54FE4F80819181A281B38132
:1034F000BC01CD0120E030E040EF52E40E94C50362
:10350000882369F28A81882F90E0880F991F880F9D
:10351000991FFC01EA54FE4F80819181A281B38101
:10352000BC01CD0120E030E04CE352E40E94C50331
:10353000882309F4B4CF8A81882F90E0880F991FDF
:10354000880F991FFC01EA54FE4F80819181A2816E
:10355000B381BC01CD0120E030E04CE252E40E9496
:10356000C503882309F49BCF8A81882F90E0880FB8
:10357000991F880F991FFC01EA54FE4F80819181A9
:10358000A281B381BC01CD0120E030E044E352E4EC
:103590000E94C503882309F482CF8A81C82EDD24C6
:1035A0008A81882F90E0880F991F880F991FFC014E
:1035B000EA54FE4FE080F180028113818B81882FD5
:1035C00090E0880F991F880F991FFC01EA54FE4F65
:1035D0002081318142815381C801B7010E94F201EB
:1035E000DC01CB019C01AD01C601880F991F880F3A
:1035F000991FFC01EA54FE4F208331834283538399
:103600008B81882F90E0880F991F880F991FFC01EC
:10361000EA54FE4F80E090E0ACEDB2E48083918309
:10362000A283B38389818F5F89839091F20189811D
:10363000891708F495CE0F900F900F90CF91DF91DE
:103640001F910F91FF90EF90DF90CF900895CF9250
:10365000DF92EF92FF920F931F93DF93CF9300D0EF
:103660000F92CDB7DEB781E0898365C18981882F4C
:1036700090E0880F991F880F991FFC01EA54FE4FB4
:1036800080819181A281B381BC01CD0120E030E035
:1036900044E352E40E94C503882309F049C18981AB
:1036A00081508A8303C08A8181508A838A81882FCE
:1036B00090E0880F991F880F991FFC01EA54FE4F74
:1036C00080819181A281B381BC01CD0120E030E0F5
:1036D0004CED52E40E94C503882329F38A81882F88
:1036E00090E0880F991F880F991FFC01EA54FE4F44
:1036F00080819181A281B381BC01CD0120E030E0C5
:1037000040EF52E40E94C503882369F28A81882F22
:1037100090E0880F991F880F991FFC01EA54FE4F13
:1037200080819181A281B381BC01CD0120E030E094
:103730004CE352E40E94C503882309F4B4CF8A8184
:10374000882F90E0880F991F880F991FFC01EA5479
:10375000FE4F80819181A281B381BC01CD0120E027
:1037600030E04CE252E40E94C503882309F49BCF69
:103770008A81882F90E0880F991F880F991FFC017C
:10378000EA54FE4F80819181A281B381BC01CD01B9
:1037900020E030E044E352E40E94C503882309F4AA
:1037A00082CF89818F5F8B8303C08B818F5F8B83F7
:1037B0008B81882F90E0880F991F880F991FFC013B
:1037C000EA54FE4F80819181A281B381BC01CD0179
:1037D00020E030E04CED52E40E94C503882329F339
:1037E0008B81882F90E0880F991F880F991FFC010B
:1037F000EA54FE4F80819181A281B381BC01CD0149
:1038000020E030E040EF52E40E94C503882369F2D3
:103810008A81882F90E0880F991F880F991FFC01DB
:10382000EA54FE4F80819181A281B381BC01CD0118
:1038300020E030E04CE352E40E94C503882309F401
:10384000B4CF8A81882F90E0880F991F880F991F25
:10385000FC01EA54FE4F80819181A281B381BC01B9
:10386000CD0120E030E04CE252E40E94C503882301
:1038700009F49BCF8A81882F90E0880F991F880FC9
:10388000991FFC01EA54FE4F80819181A281B3818E
:10389000BC01CD0120E030E044E352E40E94C503C6
:1038A000882309F482CF8A81C82EDD248A81882F5B
:1038B00090E0880F991F880F991FFC01EA54FE4F72
:1038C000E080F180028113818B81882F90E0880F46
:1038D000991F880F991FFC01EA54FE4F2081318106
:1038E00042815381C801B7010E94C101DC01CB01B3
:1038F0009C01AD01C601880F991F880F991FFC011B
:10390000EA54FE4F20833183428353838B81882F77
:1039100090E0880F991F880F991FFC01EA54FE4F11
:1039200080E090E0ACEDB2E480839183A283B38326
:1039300089818F5F89839091F2018981891708F4C9
:1039400095CE0F900F900F90CF91DF911F910F9117
:10395000FF90EF90DF90CF900895DF93CF9300D04A
:1039600000D000D0CDB7DEB79B838A836C831982E9
:10397000EDC08981282F30E08A819B81FC01E20F14
:10398000F31F8081282F30E03E832D838D819E811F
:103990008530910509F48BC02D813E81263031059B
:1039A00024F58D819E818230910509F45FC02D81BF
:1039B0003E812330310564F48D819E81009709F4A6
:1039C0003FC02D813E812130310509F444C0BBC088
:1039D0008D819E818330910509F453C02D813E81F4
:1039E0002430310509F458C0AEC08D819E818830E5
:1039F000910509F47DC02D813E81293031056CF49B
:103A00008D819E818630910509F45CC02D813E81B7
:103A10002730310509F461C096C08D819E818D32B9
:103A2000910509F47BC02D813E812E32310509F4C8
:103A300080C08D819E818930910509F464C083C066
:103A40008981282F30E08A819B81FC01E20FF31FDE
:103A500080E3808378C08981282F30E08A819B8130
:103A6000FC01E20FF31F81E380836DC08981282F61
:103A700030E08A819B81FC01E20FF31F82E38083A7
:103A800062C08981282F30E08A819B81FC01E20F8E
:103A9000F31F83E3808357C08981282F30E08A8118
:103AA0009B81FC01E20FF31F84E380834CC089817A
:103AB000282F30E08A819B81FC01E20FF31F85E310
:103AC000808341C08981282F30E08A819B81FC015D
:103AD000E20FF31F86E3808336C08981282F30E010
:103AE0008A819B81FC01E20FF31F87E380832BC057
:103AF0008981282F30E08A819B81FC01E20FF31F2E
:103B000088E3808320C08981282F30E08A819B81CF
:103B1000FC01E20FF31F89E3808315C08981282F00
:103B200030E08A819B81FC01E20FF31F8DE28083EC
:103B30000AC08981282F30E08A819B81FC01E20F35
:103B4000F31F8EE2808389818F5F898399818C81C5
:103B5000981708F40ECF26960FB6F894DEBF0FBE66
:103B6000CDBFCF91DF9108950F931F93DF93CF9334
:103B7000CDB7DEB760970FB6F894DEBF0FBECDBFEE
:103B80009C878B874D875E876F87788B1A8619860F
:103B90006D857E858F85988920E030E040E050E09B
:103BA0000E94850488235CF48D859E85AF85B88945
:103BB000B0588D879E87AF87B88B81E089876D85E8
:103BC0007E858F8598890E941305DC01CB018D834A
:103BD0009E83AF83B8876D817E818F8198850E9497
:103BE000B5049B01AC016D857E858F8598890E9407
:103BF000C101DC01CB0189839A83AB83BC836981DA
:103C00007A818B819C8120E030E040E050E00E948E
:103C1000F503882309F465C069817A818B819C81D1
:103C200020E836E948E15BE40E941F02DC01CB0199
:103C300089839A83AB83BC838A85282F30E08B8568
:103C40009C858C01020F131F69817A818B819C8175
:103C50000E941305DC01CB012AE030E040E050E097
:103C6000BC01CD010E947520DC01CB01F8018083ED
:103C700069817A818B819C810E944900DC01CB01A2
:103C80002AE030E040E050E0BC01CD010E9453202A
:103C9000DA01C901BC01CD010E946705DC01CB013D
:103CA00089839A83AB83BC838A858F5F8A87698186
:103CB0007A818B819C8120E030E040E050E00E94DE
:103CC000250418160CF4B8CF8A85282F30E08B8590
:103CD0009C85FC01E20FF31F8EE280838A858F5F53
:103CE0008A878A85282F30E08B859C858C01020F7E
:103CF000131F8D819E81AF81B8852AE030E040E0BE
:103D000050E0BC01CD010E947520DC01CB01F8011F
:103D100080838D819E81AF81B8852AE030E040E0CC
:103D200050E0BC01CD010E947520DA01C9018D83EC
:103D30009E83AF83B8878A858F5F8A878D819E81B6
:103D4000AF81B885181619061A061B0654F2898524
:103D5000882369F08A85282F30E08B859C85FC01BB
:103D6000E20FF31F8DE280838A858F5F8A878A85C1
:103D700060960FB6F894DEBF0FBECDBFCF91DF9136
:103D80001F910F910895DF93CF9300D000D00F9231
:103D9000CDB7DEB79C838B836D831A823DC08D8146
:103DA000282F30E08A81882F90E0A901481B590B09
:103DB000CA019C01215030408B819C81FC01E20FA3
:103DC000F31F808189838D81282F30E08A81882F9D
:103DD00090E0A901481B590BCA019C0121503040B9
:103DE0008B819C81DC01A20FB31F8A81282F30E0D8
:103DF0008B819C81FC01E20FF31F80818C938A816F
:103E0000282F30E08B819C81FC01E20FF31F898118
:103E100080838A818F5F8A838D81982F96958A818E
:103E2000891708F4BCCF0F900F900F900F900F9050
:103E3000CF91DF910895DF93CF93CDB7DEB7E397AE
:103E40000FB6F894DEBF0FBECDBF80E06FE00E94DA
:103E5000A40980E060EF0E94D30A82E06FEF0E9425
:103E6000A40983E06FEF0E94A4090E94620E8AE019
:103E7000FE017196DF01982F1D929A95E9F7188A35
:103E800081E08F87DE015B96BBA7AAA7E0E6F0E0A2
:103E9000FDA7ECA7F7E0FEA7ACA5BDA50C90ECA58F
:103EA000FDA53196FDA7ECA7AAA5BBA50C92EAA596
:103EB000FBA53196FBA7EAA7FEA5F150FEA78EA5AC
:103EC000882351F7DE019296B8ABAFA7E7E6F0E0A2
:103ED000FAABE9ABF6E0FBABA9A9BAA90C90E9A94A
:103EE000FAA93196FAABE9ABAFA5B8A90C92EFA548
:103EF000F8A93196F8ABEFA7FBA9F150FBAB8BA962
:103F0000882351F719A618A6CE0188960E94FB0CAB
:103F100088A5882309F454C08F85882329F481E07B
:103F20000E948A1181E08F8789A58A3038F489A59B
:103F30000E94491588A50E949F1242C089A580331E
:103F400071F488A50E94991588A5813621F481E035
:103F50000E948A1135C088A50E949F1231C089A590
:103F6000853671F58091F5018823B1F081E00E94DA
:103F70008A11CE014B9666E00E94B41384EC0E9435
:103F80008A11CE01829665E00E94B4131F861092BA
:103F9000F5010E942E1514C088A59E012F5E3F4F8B
:103FA000B9010E942316888B80EC0E948A1188A593
:103FB0000E949F12CE01419668890E94B4131F8609
:103FC00080E090E0A8E4B3E48B879C87AD87BE8750
:103FD0006B857C858D859E8520E030E04AEF54E43A
:103FE0000E941F02DC01CB018F839887A987BA87C3
:103FF0006F81788589859A8520E030E040E85FE32D
:104000000E94850488232CF481E090E09E838D83B8
:104010003FC06F81788589859A8520E03FEF4FE723
:1040200057E40E94250418164CF56B857C858D8518
:104030009E8520E030E040E251E40E941F02DC0156
:10404000CB01BC01CD010E944900DC01CB019E8364
:104050008D830FC088EC90E09C838B838B819C8147
:104060000197F1F79C838B838D819E8101979E83BD
:104070008D838D819E81009769F744CF6F8178850C
:1040800089859A850E944900DC01CB019E838D833E
:104090008D819E819A83898389819A810197F1F725
:1040A0009A8389832FCFA1E21A2EAA1BBB1BFD0185
:1040B0000DC0AA1FBB1FEE1FFF1FA217B307E40707
:1040C000F50720F0A21BB30BE40BF50B661F771F5F
:1040D000881F991F1A9469F760957095809590953F
:1040E0009B01AC01BD01CF01089597FB092E052668
:1040F0000ED057FD04D0D7DF0AD0001C38F45095FD
:104100004095309521953F4F4F4F5F4F0895F6F7FB
:1041100090958095709561957F4F8F4F9F4F089533
:104120002F923F924F925F926F927F928F929F92C7
:10413000AF92BF92CF92DF92EF92FF920F931F93B5
:10414000CF93DF93CDB7DEB7CA1BDB0B0FB6F89466
:10415000DEBF0FBECDBF09942A88398848885F84A6
:104160006E847D848C849B84AA84B984C884DF8017
:10417000EE80FD800C811B81AA81B981CE0FD11DFB
:104180000FB6F894DEBF0FBECDBFED010895F894D1
:02419000FFCF5F
:1041920053796E746178004572726F72000000008C
:1041A20000000000000001020203030303040404F0
:1041B20004040404040505050505050505050505B2
:1041C2000505050505060606060606060606060692
:1041D200060606060606060606060606060606067D
:1041E2000606060606070707070707070707070762
:1041F200070707070707070707070707070707074D
:10420200070707070707070707070707070707073C
:10421200070707070707070707070707070707072C
:104222000707070707080808080808080808080811
:1042320008080808080808080808080808080808FC
:1042420008080808080808080808080808080808EC
:1042520008080808080808080808080808080808DC
:1042620008080808080808080808080808080808CC
:1042720008080808080808080808080808080808BC
:1042820008080808080808080808080808080808AC
:10429200080808080808080808080808080808089C
:1042A2000808080808020017151F00000000000097
:1042B2000407040C18040A00151F000000060E046F
:1042C200040404000000000E0A0E020408000000AC
:1042D2000007040C180000040A1B0A04000000076F
:0642E200041F00000000B3
:00000001FF
